:100000000C9463000C948B000C948B000C948B006C
:100010000C948B000C948B000C948B000C948B0034
:100020000C948B000C948B000C948B000C9424018A
:100030000C948B000C948B000C948B000C948B0014
:100040000C9437070C948B000C94360A0C94680AB5
:100050000C948B000C948B000C948B000C948B00F4
:100060000C948B000C948B0000000008000201002F
:100070000003040700000000000000000102040863
:100080001020408001020408102001020408102002
:10009000040404040404040402020202020203032E
:1000A00003030303000000002300260029000000D2
:1000B0000000250028002B0000000000240027007D
:1000C0002A00D900980A11241FBECFEFD8E0DEBF66
:1000D000CDBF11E0A0E0B1E0E4E2F9E102C005909B
:1000E0000D92A634B107D9F722E0A6E4B1E001C031
:1000F0001D92A83BB207E1F710E0C6ECD0E004C0C7
:100100002297FE010E94650BC23CD107C9F70E94ED
:10011000230B0C94900C0C94000020E042E060E172
:100120008CEC91E00E94650669E070E085EB91E05F
:100130000E947A026AE071E08CEC91E00E94190B57
:1001400068EE73E080E090E00E94B0078CEC91E0F4
:100150000E94560626E040E855E260E070E087E144
:1001600092E00C94D4091F93CF93DF9386E491E03F
:100170000E947205182F80ED810F8A30B0F4612F34
:100180008CEC91E00E941B0BCAE0D1E088818A339D
:1001900039F018836AE071E08CEC91E00E94190B51
:1001A000219681E0C031D80789F7DF91CF911F9167
:1001B0000895CF92EF920F93CF93DF9380E190E079
:1001C0000E94320BEC0140ED57E060E070E00E94CD
:1001D0002907D093E701C093E60180E190E00E94F7
:1001E000320BEC0148EB5BE060E070E00E94290715
:1001F000D093E501C093E40182E0C82E93E0E92E9C
:1002000004E025E046E067E08CEC91E00E94030703
:1002100048E050E06AE070E088EB91E00E949305CE
:1002200085EB91E00E94E00120E131E043E151E003
:1002300067E171E086E491E00E949102DF91CF9145
:100240000F91EF90CF9008951F920F920FB60F92DB
:1002500011242F933F934F935F936F937F938F93CB
:100260009F93AF93BF93EF93FF938091E90187FF33
:1002700005C010928500109284001AC02091E901F7
:10028000332727FD30958091E80190E02817390742
:100290007CF48091E901992787FD9095FC01EE0F90
:1002A000FF1FE80FF91FE651FE4F808186FD15C044
:1002B0008091E9018F5F8093E9012091E901332763
:1002C00027FD30958091E80190E028173907BCF4AC
:1002D0008091E9018C305CF112C08091E90199278D
:1002E00087FD9095FC01EE0FFF1FE80FF91FE65107
:1002F000FE4F808160E08F730E949208D9CF809179
:10030000840090918500049680349C4918F480E420
:100310009CE905C08091840090918500049690939B
:100320008900809388008FEF8093E90138C0209185
:100330008400309185008091E901992787FD90958F
:10034000FC01EE0FFF1FE80FF91FE651FE4F818100
:100350009281820F931F90938900809388008091EF
:10036000E901992787FD9095FC01EE0FFF1FE80F2B
:10037000F91FE651FE4F808186FF11C08091E9018F
:10038000992787FD9095FC01EE0FFF1FE80FF91FDD
:10039000E651FE4F808161E08F730E949208FF91C9
:1003A000EF91BF91AF919F918F917F916F915F91ED
:1003B0004F913F912F910F900FBE0F901F90189566
:1003C0002091E8012C30A0F431E0320F3093E801A5
:1003D000FC012083822F90E0FC01EE0FFF1FE80F4D
:1003E000F91FE651FE4F88EB9BE0928381830895CD
:1003F0002FEFFC0120830895DF92EF92FF920F937D
:100400001F93CF93DF93EC01D62E7A018901888167
:100410008C3008F066C061E08D2D0E9459088881FB
:10042000A82FB0E0FD01EE0FFF1FEA0FFB1FE65102
:10043000FE4F2D2D2F739081907C922B908360E244
:1004400072E06E197F0977FF02C06D5F7F4F75956F
:10045000679575956795698340E659E0401B510B98
:1004600057FF02C04D5F5F4F55954795559547958E
:100470004A836CE00E94350B9CE0899FB0011124F7
:1004800020E030E0A901460F571FFA01EE0FFF1FD1
:10049000E40FF51FE651FE4F908196FD16C02F5FC9
:1004A0003F4F2C30310571F781110FC01092800041
:1004B00082E0809381001092850010928400B19AAE
:1004C00080916F00826080936F00888190E0FC01D2
:1004D000EE0FFF1FE80FF91FE651FE4F8081806489
:1004E00080838881DF91CF911F910F91FF90EF90D2
:1004F000DF90089520E639E040E252E00C94FC01E0
:10050000FC0110821482138215820895862F642FB5
:100510000C945908862F642F0C949208862F0C9403
:10052000C8084F925F926F927F928F929F92AF9284
:10053000BF92CF92DF92EF920F93CF93DF93EC01B4
:100540004B013A01590102960E94800287E291E034
:10055000998388836E018CE1C80ED11C26018CE33F
:10056000480E511CC6010E94800286E0C80ED11CB4
:10057000C414D504B9F7FE01EE59FF4F71826082B1
:100580003296B182A082329600833196E08237970C
:100590009182808238968AE090E0918380833296BF
:1005A00084EF91E09183808333961182108271975A
:1005B0001082118212821382C459DF4F1882DF9198
:1005C000CF910F91EF90DF90CF90BF90AF909F9021
:1005D0008F907F906F905F904F9008952F923F92F1
:1005E0004F925F926F927F928F929F92AF92BF9243
:1005F000CF92DF92EF92FF920F931F93CF93DF93EF
:10060000CDB7DEB728970FB6F894DEBF0FBECDBFCB
:1006100098878F83F12C4C0186E6880E911C0F8100
:1006200018850E591F4FD4018C91F816A0F4AF8194
:10063000B8858D919C91F801A081B181AF0DB11D5C
:10064000FC012081318142E06C918F819885F90114
:100650000995F394E8CF512CEF81F885E959FF4FC4
:10066000FA83E9830F8118850C591F4FC12CD12CB7
:100670007601C3948F8198858E599F4F9C838B837D
:10068000A981BA818C91581608F088C0A52CB12C8C
:10069000AF81B8858D919C91F801A081B181AA0D9F
:1006A000BB1DFC012081318141E06C918F819885D7
:1006B000F9010995AF81B8858D919C91F801A081D0
:1006C000B181AA0DBB1DFC012281338140E06C91F8
:1006D0008F819885F9010995D701C601052C04C0C1
:1006E000880F991FAA1FBB1F0A94D2F79C011C01F7
:1006F00020943094412CD4018C91EF81F885408175
:100700005181481648F5642C712CEB81FC81A08145
:10071000B181A60DB71DFA01448155816C918F817D
:1007200098852D833E83FA010995660C771C2D81EF
:100730003E81EF81F885E60DF71D892B29F4808530
:100740009185822B932B04C08085918582219321F2
:10075000918780874394CFCFF801A081B181AA0D02
:10076000BB1DFA012281338141E06C918F81988514
:10077000F9010995AF81B8858D919C91F801A0810F
:10078000B181AA0DBB1DFC012081318140E06C913B
:100790008F819885F9010995539472CF28960FB6E9
:1007A000F894DEBF0FBECDBFDF91CF911F910F91A7
:1007B000FF90EF90DF90CF90BF90AF909F908F9081
:1007C0007F906F905F904F903F902F900895FC0125
:1007D00080E090E0258D368D2617370739F0019699
:1007E00036968A309105B1F78FEF9FEF0895DC01BF
:1007F00026E0629FA00DB11D112490965C934E934C
:100800005F9721E091962C939197FC01E459FF4F5B
:10081000208131960190F081E02D222331F0309734
:1008200049F0611107C0DC0102C0309719F05C96F5
:100830008C9109940895CF92DF92FF920F931F93AA
:10084000CF93DF931F92CDB7DEB76C01F62EFC017C
:1008500086E0689FE00DF11D112411A2878D90A103
:1008600081309105F1F01CF4892B51F046C08230A3
:10087000910599F1039709F040C040E050E031C084
:100880004423D9F141E050E0C6010E94F7030E94E1
:100890008107F601E85AFF4F608371838283938357
:1008A0002CC049830E948107F601E85AFF4F00815E
:1008B000118122813381601B710B820B930B729625
:1008C0000081118120E030E04981061717072807D1
:1008D000390718F442E050E004C041110EC043E073
:1008E00050E06F2DC6010F90DF91CF911F910F91B6
:1008F000FF90DF90CF900C94F7030F90DF91CF9192
:100900001F910F91FF90DF90CF9008952F923F920B
:100910004F925F926F927F928F929F92AF92BF920F
:10092000CF92DF92EF92FF920F931F93CF93DF93BB
:100930001F92CDB7DEB71C01FC014AE08FEF9FEF9D
:10094000278D30A1232B21F4148E968F858F11A231
:10095000415036964111F4CF712C610126E6C20E4A
:10096000D11C510187E6A80EB11C4101A0E68A0EF8
:10097000911C46E0442ED6018C91781608F055C0A3
:10098000612C8101070D111D070D111D085F1F4FFF
:10099000F501E0806E1408F046C0F80140815181F5
:1009A000062C02C0569547950A94E2F741707E9C4A
:1009B00070011124E60CF11CD401ED91FC91EE0DB7
:1009C000FF1D5080B701C10149830E94E70349819F
:1009D00097FD02C0682F1BC0019619F5442309F149
:1009E00080E090E060E070E0F101E80FF91F248DF5
:1009F000211111C0469EF001479EF00D1124E20D19
:100A0000F31D548EF68EE58E10A2178E41E0C101C3
:100A10000E941B0406C06F5F7F4F06966A30710507
:100A200019F76394B5CF7394A6CF20E030E080E04F
:100A3000F101E20FF31F91A1911181E02A5F3F4F75
:100A40002C333105A9F70F90DF91CF911F910F91B2
:100A5000FF90EF90DF90CF90BF90AF909F908F90DE
:100A60007F906F905F904F903F902F900895CF921E
:100A7000DF92EF92FF920F931F93CF93DF938C013E
:100A80000E948107E801C45ADF4FC880D980EA80FC
:100A9000FB806C197D098E099F09F801E859FF4F09
:100AA000C080D180E12CF12CC616D706E806F906E5
:100AB00070F4C8010E94EE02C8010E948604182F3B
:100AC0000E948107688379838A839B8301C010E039
:100AD000812FDF91CF911F910F91FF90EF90DF90C9
:100AE000CF9008950F931F93CF93DF93EC018C0168
:100AF00004591F4F81E0F8018083CE010E94370521
:100B0000882349F089A1882331F08F8D98A101971E
:100B100011F48C8D03C0F801108280E0DF91CF9139
:100B20001F910F910895EF92FF920F931F93CF9310
:100B3000DF9300D0CDB7DEB77C01062F142F61E024
:100B4000802F5A8379830E94590860E0812F0E9488
:100B50005908F70100837981718312835A81538385
:100B600048EB5BE060E070E0448355836683778305
:100B70000F900F90DF91CF911F910F91FF90EF9009
:100B80000895CF93DF93EC0160E08E810E9492087C
:100B900081E090E00E94EA0761E08E810E94920865
:100BA00081E090E00E94EA0760E08E810E94920856
:100BB00084E690E0DF91CF910C94EA07EF92FF92E8
:100BC0000F931F93CF93DF938C01C0E0D0E0E62E0C
:100BD000F12CB7010C2E02C0759567950A94E2F7C7
:100BE0006170F801EC0FFD1F87810E949208219629
:100BF000C430D10571F7C801DF91CF911F910F91DA
:100C0000FF90EF900C94C105EF92FF920F931F930A
:100C1000CF93DF938C01C0E0D0E0E62EF12CB7013A
:100C20000C2E02C0759567950A94E2F76170F80181
:100C3000EC0FFD1F87810E9492082196C830D105D4
:100C400071F7C801DF91CF911F910F91FF90EF9045
:100C50000C94C1051F93CF93DF93EC01162F642FE3
:100C60008C810E9492088D818F3F19F060E00E9474
:100C700092088F85612F84FF06C0CE01DF91CF914E
:100C80001F910C94040670E084E0759567958A9531
:100C9000E1F7CE010E94DE05612FCE01DF91CF91F9
:100CA0001F910C94DE0540E00C942A0661E00E943E
:100CB000530680ED97E00C94EA07FC016089262F2B
:100CC0002460208B6C600C9453060F931F93CF937A
:100CD000DF93EC01423018F08F8588608F874B8B53
:100CE0001C8A80E48D8B6E8B70E0605C7F4F6F8B15
:100CF000222329F0413019F48F8584608F8761E0C9
:100D00008C810E9459088D818F3F19F061E00E940B
:100D1000590861E08E810E94590800E010E08F853B
:100D200084FF03C088E090E002C084E090E00817F0
:100D3000190754F4FE01E00FF11F61E087810E9462
:100D400059080F5F1F4FEBCF80E593EC0E94EA0735
:100D500060E08C810E94920860E08E810E9492087F
:100D60008D818F3F19F060E00E9492086F8564FDCD
:100D70001DC063E0CE010E94DE0584E991E10E947E
:100D8000EA0763E0CE010E94DE0584E991E10E945A
:100D9000EA0763E0CE010E94DE0586E990E00E944A
:100DA000EA0762E0CE010E94DE0516C06062CE0155
:100DB0000E94530684E991E10E94EA076F85606210
:100DC000CE010E94530686E990E00E94EA076F85F3
:100DD0006062CE010E9453066F856062CE010E9460
:100DE000530684E0888BCE010E945D06CE010E94EE
:100DF000560682E0898B66E0CE01DF91CF911F918C
:100E00000F910C945306CF92EF920F93FC01138233
:100E1000128281E391E09183808364838FEF8583E5
:100E2000468327830087E186C2861386148615864B
:100E30001686178620E041E060E1CF010F91EF9028
:100E4000CF900C94650641E00E942A0681E090E074
:100E50000895FC0140835183628373831482158259
:100E600017821682108611861286138608951F92A5
:100E70000F920FB60F9211242F933F938F939F934E
:100E8000AF93BF9380910F0290911002A091110235
:100E9000B091120230910E0223E0230F2D3720F47F
:100EA0000196A11DB11D05C026E8230F0296A11DC4
:100EB000B11D20930E0280930F0290931002A09315
:100EC0001102B09312028091130290911402A0912A
:100ED0001502B09116020196A11DB11D8093130257
:100EE00090931402A0931502B0931602BF91AF9194
:100EF0009F918F913F912F910F900FBE0F901F9058
:100F000018952FB7F89460910F027091100280919C
:100F10001102909112022FBF08953FB7F89480916B
:100F2000130290911402A0911502B091160226B5F9
:100F3000A89B05C02F3F19F00196A11DB11D3FBF11
:100F40006627782F892F9A2F620F711D811D911DA1
:100F500042E0660F771F881F991F4A95D1F70895C1
:100F60008F929F92AF92BF92CF92DF92EF92FF92B9
:100F70006B017C010E948D074B015C01C114D104FF
:100F8000E104F104F1F00E94340B0E948D0768190E
:100F900079098A099B09683E73408105910570F3C0
:100FA00021E0C21AD108E108F10888EE880E83E03A
:100FB000981EA11CB11CC114D104E104F10429F74D
:100FC000DDCFFF90EF90DF90CF90BF90AF909F90DC
:100FD0008F9008958230910538F0880F991F880FFF
:100FE000991F05970197F1F70895789484B5826069
:100FF00084BD84B5816084BD85B5826085BD85B5BD
:10100000816085BDEEE6F0E0808181608083E1E86B
:10101000F0E01082808182608083808181608083A3
:10102000E0E8F0E0808181608083E1EBF0E08081A6
:1010300084608083E0EBF0E0808181608083EAE778
:10104000F0E0808184608083808182608083808101
:10105000816080838081806880831092C1000895C0
:10106000833081F028F4813099F08230A1F0089526
:101070008730A9F08830B9F08430D1F480918000B5
:101080008F7D03C0809180008F77809380000895CA
:1010900084B58F7702C084B58F7D84BD089580911B
:1010A000B0008F7703C08091B0008F7D8093B00037
:1010B0000895CF93DF9390E0FC01E458FF4F249113
:1010C000FC01E057FF4F8491882349F190E0880F9D
:1010D000991FFC01E854FF4FA591B49182559F4F91
:1010E000FC01C591D4919FB7611108C0F8948C910F
:1010F000209582238C93888182230AC0623051F428
:10110000F8948C91322F309583238C938881822B95
:10111000888304C0F8948C91822B8C939FBFDF91BD
:10112000CF9108950F931F93CF93DF931F92CDB765
:10113000DEB7282F30E0F901E859FF4F8491F9011B
:10114000E458FF4F1491F901E057FF4F0491002339
:10115000C9F0882321F069830E9430086981E02F5B
:10116000F0E0EE0FFF1FE255FF4FA591B4919FB73E
:10117000F8948C91611103C01095812301C0812BDB
:101180008C939FBF0F90DF91CF911F910F91089586
:10119000CF93DF93282F30E0F901E859FF4F849176
:1011A000F901E458FF4FD491F901E057FF4FC49182
:1011B000CC2391F081110E943008EC2FF0E0EE0F6B
:1011C000FF1FEC55FF4FA591B4912C912D2381E089
:1011D00090E021F480E002C080E090E0DF91CF91C8
:1011E0000895FC01818D228D90E0805C9F4F821BD1
:1011F00091098F7399270895FC01918D828D98171D
:1012000031F0828DE80FF11D858D90E008958FEF0C
:101210009FEF0895FC01918D828D981761F0828D6A
:10122000DF01A80FB11D5D968C91928D9F5F9F731A
:10123000928F90E008958FEF9FEF08958EE89AE0E7
:10124000892B49F080E090E0892B29F00E948E0ADA
:1012500081110C9400000895FC01848DDF01A80F1A
:10126000B11DA35ABF4F2C91848D90E001968F73CE
:101270009927848FA689B7892C93A089B1898C91ED
:1012800080648C93938D848D981306C00288F389B3
:10129000E02D80818F7D80830895CF93DF93EC01D3
:1012A000888D8823C9F0EA89FB89808185FD05C086
:1012B000A889B9898C9186FD0FC00FB607FCF5CFC0
:1012C000808185FFF2CFA889B9898C9185FFEDCF08
:1012D000CE010E942C09E7CFDF91CF910895CF92E4
:1012E000DF92FF920F931F93CF93DF931F92CDB79F
:1012F000DEB76C0181E0D60158968C9358975B96C7
:101300009C915B975C968C915C97981307C0509664
:10131000ED91FC915197808185FD2EC0F601038DE2
:1013200010E00F5F1F4F0F731127F02EF601848D11
:10133000F81211C00FB607FCF9CFD6015096ED9107
:10134000FC915197808185FFF1CFC60169830E948E
:101350002C096981EBCF838DE80FF11DE35AFF4F14
:101360006083D6015B960C935B975296ED91FC914E
:101370005397808180620CC0D6015696ED91FC9106
:10138000579760835096ED91FC91519780818064CE
:10139000808381E090E00F90DF91CF911F910F91BA
:1013A000FF90DF90CF900895BF92CF92DF92EF929F
:1013B000FF92CF93DF93EC016A017B01B22EE889A3
:1013C000F98982E08083411581EE58076105710536
:1013D000A1F060E079E08DE390E0A70196010E9422
:1013E000410B2150310941095109569547953795CF
:1013F0002795211580E1380798F0E889F98910824E
:1014000060E874E88EE190E0A70196010E94410B2C
:10141000215031094109510956954795379527952E
:10142000EC85FD853083EE85FF852083188EEC8961
:10143000FD89B082EA89FB89808180618083EA89A5
:10144000FB89808188608083EA89FB89808180684C
:101450008083EA89FB8980818F7D8083DF91CF91B2
:10146000FF90EF90DF90CF90BF9008951F920F9262
:101470000FB60F9211242F938F939F93EF93FF93A7
:10148000E0912702F09128028081E0912D02F091F5
:101490002E0282FD12C09081809130028F5F8F7387
:1014A00020913102821751F0E0913002F0E0E95EC4
:1014B000FD4F958F8093300201C08081FF91EF91A5
:1014C0009F918F912F910F900FBE0F901F901895A5
:1014D0001F920F920FB60F9211242F933F934F93A9
:1014E0005F936F937F938F939F93AF93BF93EF938C
:1014F000FF9387E192E00E942C09FF91EF91BF9149
:10150000AF919F918F917F916F915F914F913F919B
:101510002F910F900FBE0F901F90189587E192E0CA
:101520000E94F10821E0892B09F420E0822F089520
:1015300010921A021092190288EE93E0A0E0B0E037
:1015400080931B0290931C02A0931D02B0931E0275
:1015500089E391E0909318028093170285EC90E064
:10156000909324028093230284EC90E090932602CF
:101570008093250280EC90E09093280280932702CC
:1015800081EC90E090932A028093290282EC90E013
:1015900090932C0280932B0286EC90E090932E0285
:1015A00080932D021092300210923102109232027A
:1015B000109233020895CF92DF92EF92FF920F9331
:1015C0001F93CF93DF937C016A01EB0100E010E0F1
:1015D0000C151D0571F06991D701ED91FC910190F9
:1015E000F081E02DC7010995892B19F00F5F1F4F7E
:1015F000EFCFC801DF91CF911F910F91FF90EF9036
:10160000DF90CF9008956115710581F0DB010D9099
:101610000020E9F7AD0141505109461B570BDC0191
:10162000ED91FC910280F381E02D099480E090E03F
:1016300008950C94030BDC01ED91FC910190F08175
:10164000E02D099408950E94F5070E94220B0E9444
:101650008D00CEE1D9E00E94B3002097E1F30E9413
:101660001E09F9CF0C94690B0895991B79E004C009
:10167000991F961708F0961B881F7A95C9F78095D1
:101680000895A1E21A2EAA1BBB1BFD010DC0AA1FC3
:10169000BB1FEE1FFF1FA217B307E407F50720F0DB
:1016A000A21BB30BE40BF50B661F771F881F991F56
:1016B0001A9469F760957095809590959B01AC019F
:1016C000BD01CF010895EE0FFF1F0590F491E02DAD
:1016D0000994CF93DF938230910510F482E090E07B
:1016E000E091B602F091B70220E030E0A0E0B0E077
:1016F000309739F14081518148175907B8F04817A0
:10170000590771F482819381109729F013969C9365
:101710008E9312972CC09093B7028093B60227C085
:101720002115310531F04217530718F0A901DB01EB
:1017300001C0EF019A01BD01DF010280F381E02DBC
:10174000D7CF21153105F9F0281B390B243031058D
:1017500080F48A819B816115710521F0FB019383DF
:10176000828304C09093B7028093B602FE01329642
:1017700044C0FE01E20FF31F81939193225031097F
:10178000398328833AC02091B4023091B502232BCB
:1017900041F420910201309103013093B50220936E
:1017A000B40220910001309101012115310541F46D
:1017B0002DB73EB74091040150910501241B350B14
:1017C000E091B402F091B502E217F307A0F42E1BEA
:1017D0003F0B2817390778F0AC014E5F5F4F241795
:1017E000350748F04E0F5F1F5093B5024093B40287
:1017F0008193919302C0E0E0F0E0CF01DF91CF91BF
:101800000895CF93DF93009709F487C0FC013297C6
:1018100013821282C091B602D091B702209781F450
:1018200020813181280F391F8091B4029091B50237
:101830008217930779F5F093B502E093B4026DC077
:10184000DE0120E030E0AE17BF0750F412964D9154
:101850005C9113979D014115510509F1DA01F3CF10
:10186000B383A28340815181840F951F8A179B0700
:1018700071F48D919C911197840F951F029691831D
:10188000808312968D919C91139793838283211567
:10189000310529F4F093B702E093B6023EC0D901B6
:1018A0001396FC93EE9312974D915D91A40FB51F83
:1018B000EA17FB0779F480819181840F951F0296C6
:1018C000D90111969C938E938281938113969C9358
:1018D0008E931297E0E0F0E08A819B81009719F0E7
:1018E000FE01EC01F9CFCE01029628813981820FE9
:1018F000931F2091B4023091B5022817390769F47B
:10190000309729F41092B7021092B60202C01382E7
:101910001282D093B502C093B402DF91CF910895A3
:04192000F894FFCF69
:101924000000B80280000100000030303A3030007E
:1019340012130B0E0F101131323334353637383958
:1019440023302A0000000086028A028E0200000072
:10195400002307DB0A000000006F09DB0AF1080A14
:0619640009FC084D09001A
:00000001FF
