:100000000C9462000C948A000C948A000C948A0070
:100010000C948A000C948A000C948A000C948A0038
:100020000C948A000C948A000C948A000C948A0028
:100030000C948A000C948A000C948A000C948A0018
:100040000C941E030C948A000C948A000C948A0071
:100050000C948A000C948A000C948A000C948A00F8
:100060000C948A000C948A00000000080002010031
:100070000003040700000000000000000102040863
:100080001020408001020408102001020408102002
:10009000040404040404040402020202020203032E
:1000A00003030303000000002300260029000000D2
:1000B0000000250028002B0000000000240027007D
:1000C0002A00FC0011241FBECFEFD8E0DEBFCDBF59
:1000D00011E0A0E0B1E0E2E1FCE002C005900D9289
:1000E000AC30B107D9F721E0ACE0B1E001C01D921E
:1000F000A134B207E1F710E0C4ECD0E004C02297CD
:10010000FE010E940306C23CD107C9F70E94B00558
:100110000C9407060C940000CF92DF92EF92FF92AE
:100120000F931F93E82FF92F05C0015011092109E2
:10013000310961F1908196239417B9F305C00150FC
:1001400011092109310911F1908196239413F7CFF8
:10015000C12CD12CE12CF12C0AC08FEFC81AD80A7F
:10016000E80AF80A0C151D052E053F0579F0808177
:100170008623841791F36C2D7D2D8E2D9F2D1F913D
:100180000F91FF90EF90DF90CF90089560E070E0C6
:1001900080E090E01F910F91FF90EF90DF90CF9063
:1001A000089520E042E060E180E291E00C945A0280
:1001B00080E291E00E94390240E060E080E291E05C
:1001C0000E94400261E070E08CE091E00E947A01C0
:1001D000AB01BC012AE030E080E291E00E946505BD
:1001E00060E071E080E291E00E940D0564E670E05D
:1001F00080E090E00C948B03CF92EF920F9382E01B
:10020000C82E93E0E92E04E025E04BE06CE080E2AC
:1002100091E00E94F80248E050E069E070E08CE074
:1002200091E00F91EF90CF900C941601EF92FF9216
:100230000F931F93CF93DF9300D0CDB7DEB77C0130
:10024000062F142F61E0802F5A8379830E94340493
:1002500060E0812F0E943404F7010083798171836B
:1002600012835A81538348EB5BE060E070E0448383
:100270005583668377830F900F90DF91CF911F9105
:100280000F91FF90EF900895CF93DF93EC0160E022
:1002900088810E946D0482E090E00E94C50361E0C5
:1002A00088810E946D048AE090E00E94C50360E0AE
:1002B00088810E946D042C813D814E815F8161E0C7
:1002C0008A810E94A304688779878A879B87672B26
:1002D000682B692B41F48C819D81AE81BF81888719
:1002E0009987AA87BB87688579858A859B85DF91F1
:1002F000CF9108950F931F93CF93DF93EC018B0160
:100300000E944401688579858A859B85012B59F077
:100310002AE330E040E050E00E94E2052C873D8770
:100320004E875F870AC024E930E040E050E00E9439
:10033000E205288B398B4A8B5B8BCA01B901DF91AF
:10034000CF911F910F910895CF93DF93EC0160E05F
:100350008E810E946D0481E090E00E94C50361E0FF
:100360008E810E946D0481E090E00E94C50360E0F0
:100370008E810E946D0484E690E0DF91CF910C9411
:10038000C503EF92FF920F931F93CF93DF938C01DE
:10039000C0E0D0E0E62EF12CB7010C2E02C075951E
:1003A00067950A94E2F76170F801EC0FFD1F8781F1
:1003B0000E946D042196C430D10571F7C801DF9108
:1003C000CF911F910F91FF90EF900C94A401EF92A9
:1003D000FF920F931F93CF93DF938C01C0E0D0E087
:1003E000E62EF12CB7010C2E02C0759567950A9484
:1003F000E2F76170F801EC0FFD1F87810E946D0428
:100400002196C830D10571F7C801DF91CF911F91B6
:100410000F91FF90EF900C94A4011F93CF93DF9363
:10042000EC01162F642F8C810E946D048D818F3F0B
:1004300019F060E00E946D048F85612F84FF06C073
:10044000CE01DF91CF911F910C94E70170E084E021
:10045000759567958A95E1F7CE010E94C101612FDC
:10046000CE01DF91CF911F910C94C10140E00C941B
:100470000D0261E00E94360280ED97E00C94C50306
:10048000443008F043E0FC012389421710F04FEF9D
:10049000420FFC01E40FF11D2489260F2068622F12
:1004A0000C943602FC016089262F2460208B6C603E
:1004B0000C9436020F931F93CF93DF93EC014230DD
:1004C00018F08F8588608F874B8B1C8A80E48D8B1A
:1004D0006E8B70E0605C7F4F6F8B222329F0413080
:1004E00019F48F8584608F8761E08C810E943404C9
:1004F0008D818F3F19F061E00E94340461E08E81AC
:100500000E94340400E010E08F8584FF03C088E07F
:1005100090E002C084E090E00817190754F4FE014F
:10052000E00FF11F61E087810E9434040F5F1F4FCD
:10053000EBCF80E593EC0E94C50360E08C810E94C4
:100540006D0460E08E810E946D048D818F3F19F0F3
:1005500060E00E946D046F8564FD1DC063E0CE0104
:100560000E94C10184E991E10E94C50363E0CE01CC
:100570000E94C10184E991E10E94C50363E0CE01BC
:100580000E94C10186E990E00E94C50362E0CE01AD
:100590000E94C10116C06062CE010E94360284E949
:1005A00091E10E94C5036F856062CE010E94360210
:1005B00086E990E00E94C5036F856062CE010E94CB
:1005C00036026F856062CE010E94360284E0888B1D
:1005D000CE010E945202CE010E94390282E0898B34
:1005E00066E0CE01DF91CF911F910F910C943602FE
:1005F000CF92EF920F93FC011382128287E091E079
:100600009183808364838FEF85834683278300876C
:10061000E186C2861386148615861686178620E024
:1006200041E060E1CF010F91EF90CF900C945A021E
:1006300041E00E940D0281E090E008951F920F9228
:100640000FB60F9211242F933F938F939F93AF93E5
:10065000BF938091390190913A01A0913B01B091F3
:100660003C013091380123E0230F2D3720F401960F
:10067000A11DB11D05C026E8230F0296A11DB11DC5
:10068000209338018093390190933A01A0933B0164
:10069000B0933C0180913D0190913E01A0913F01BA
:1006A000B09140010196A11DB11D80933D01909331
:1006B0003E01A0933F01B0934001BF91AF919F9144
:1006C0008F913F912F910F900FBE0F901F90189513
:1006D0003FB7F89480913D0190913E01A0913F0178
:1006E000B091400126B5A89B05C02F3F19F0019697
:1006F000A11DB11D3FBF6627782F892F9A2F620F4A
:10070000711D811D911D42E0660F771F881F991F83
:100710004A95D1F708958F929F92AF92BF92CF9250
:10072000DF92EF92FF926B017C010E9468034B0104
:100730005C01C114D104E104F104F1F00E94BF0591
:100740000E946803681979098A099B09683E734009
:100750008105910570F321E0C21AD108E108F10882
:1007600088EE880E83E0981EA11CB11CC114D10430
:10077000E104F10429F7DDCFFF90EF90DF90CF90F7
:10078000BF90AF909F908F9008958230910538F080
:10079000880F991F880F991F05970197F1F7089502
:1007A000789484B5826084BD84B5816084BD85B54C
:1007B000826085BD85B5816085BDEEE6F0E0808113
:1007C00081608083E1E8F0E0108280818260808334
:1007D000808181608083E0E8F0E0808181608083B7
:1007E000E1EBF0E0808184608083E0EBF0E08081E9
:1007F00081608083EAE7F0E080818460808380818B
:100800008260808380818160808380818068808332
:100810001092C1000895833081F028F4813099F05E
:100820008230A1F008958730A9F08830B9F0843083
:10083000D1F4809180008F7D03C0809180008F77FC
:1008400080938000089584B58F7702C084B58F7D32
:1008500084BD08958091B0008F7703C08091B0006F
:100860008F7D8093B0000895CF93DF9390E0FC01DB
:10087000E458FF4F2491FC01E057FF4F84918823F7
:1008800049F190E0880F991FFC01E854FF4FA591B2
:10089000B49182559F4FFC01C591D4919FB76111CE
:1008A00008C0F8948C91209582238C9388818223B0
:1008B0000AC0623051F4F8948C91322F3095832322
:1008C0008C938881822B888304C0F8948C91822B2E
:1008D0008C939FBFDF91CF9108950F931F93CF9378
:1008E000DF931F92CDB7DEB7282F30E0F901E8592A
:1008F000FF4F8491F901E458FF4F1491F901E0573B
:10090000FF4F04910023C9F0882321F069830E94DE
:100910000B046981E02FF0E0EE0FFF1FE255FF4F5F
:10092000A591B4919FB7F8948C91611103C0109573
:10093000812301C0812B8C939FBF0F90DF91CF91BA
:100940001F910F9108950F931F93762F90E0FC0154
:10095000E458FF4F6491FC01E057FF4FE49171119F
:10096000762FF0E0EE0FFF1FEC55FF4F859194912D
:1009700089019A013F70472F0E948C006115710513
:100980008105910531F06F5F7F4F8F4F9F4F9F70B3
:1009900003C060E070E0CB011F910F910895CF92EA
:1009A000DF92EF92FF920F931F93CF93DF937C011F
:1009B0006A01EB0100E010E00C151D0571F0699172
:1009C000D701ED91FC910190F081E02DC7010995CF
:1009D000892B19F00F5F1F4FEFCFC801DF91CF9127
:1009E0001F910F91FF90EF90DF90CF9008956115C8
:1009F000710581F0DB010D900020E9F7AD01415058
:100A00005109461B570BDC01ED91FC910280F381EB
:100A1000E02D099480E090E008950C94F704DC0147
:100A2000ED91FC910190F081E02D09948F929F92BD
:100A3000AF92BF92DF92EF92FF920F931F93CF93EB
:100A4000DF93CDB7DEB7A1970FB6F894DEBF0FBE28
:100A5000CDBF7C01F42FD52ECB0119A2223008F492
:100A60002AE08E010F5D1F4F822E912CA12CB12CFC
:100A70006F2F7D2DA50194010E94C005F22FD32E6A
:100A8000CA01015011096A3014F4E0E301C0E7E340
:100A9000E60FD801EC93232B242B252B49F7B80123
:100AA000C7010E94F704A1960FB6F894DEBF0FBEEF
:100AB000CDBFDF91CF911F910F91FF90EF90DF900D
:100AC000BF90AF909F908F900895CF92DF92EF925A
:100AD000FF920F931F93CF93DF93EC016A017B0189
:100AE0002115310579F4E881F9810190F081E02D3B
:100AF000642FDF91CF911F910F91FF90EF90DF90C6
:100B0000CF9009942A303105E9F477FF1AC06DE2DD
:100B10000E940F058C0144275527BA014C195D0925
:100B20006E097F092AE0CE010E941605800F911FF1
:100B3000DF91CF911F910F91FF90EF90DF90CF90B9
:100B400008952AE0B701A601CE01DF91CF911F9150
:100B50000F91FF90EF90DF90CF900C9416050895C1
:100B60000E94D0030E94AF050E94D100C0E0D0E0F7
:100B70000E94D8002097E1F30E940000F9CF089569
:100B8000A1E21A2EAA1BBB1BFD010DC0AA1FBB1F91
:100B9000EE1FFF1FA217B307E407F50720F0A21B03
:100BA000B30BE40BF50B661F771F881F991F1A9470
:100BB00069F760957095809590959B01AC01BD019A
:100BC000CF010895052E97FB1EF400940E94F905AD
:100BD00057FD07D00E94C00507FC03D04EF40C94CB
:100BE000F90550954095309521953F4F4F4F5F4FF8
:100BF000089590958095709561957F4F8F4F9F4F89
:100C00000895EE0FFF1F0590F491E02D0994F894DC
:020C1000FFCF14
:0C0C1200636D00000000001803CF040018
:107E0000112484B714BE81FFF0D085E080938100F7
:107E100082E08093C00088E18093C10086E0809377
:107E2000C20080E18093C4008EE0C9D0259A86E02C
:107E300020E33CEF91E0309385002093840096BBD3
:107E4000B09BFECF1D9AA8958150A9F7CC24DD24C4
:107E500088248394B5E0AB2EA1E19A2EF3E0BF2EE7
:107E6000A2D0813461F49FD0082FAFD0023811F036
:107E7000013811F484E001C083E08DD089C08234E0
:107E800011F484E103C0853419F485E0A6D080C0E4
:107E9000853579F488D0E82EFF2485D0082F10E0AE
:107EA000102F00270E291F29000F111F8ED06801E7
:107EB0006FC0863521F484E090D080E0DECF843638
:107EC00009F040C070D06FD0082F6DD080E0C81688
:107ED00080E7D80618F4F601B7BEE895C0E0D1E017
:107EE00062D089930C17E1F7F0E0CF16F0E7DF06D8
:107EF00018F0F601B7BEE89568D007B600FCFDCFD4
:107F0000A601A0E0B1E02C9130E011968C91119780
:107F100090E0982F8827822B932B1296FA010C0160
:107F200087BEE89511244E5F5F4FF1E0A038BF0790
:107F300051F7F601A7BEE89507B600FCFDCF97BE46
:107F4000E89526C08437B1F42ED02DD0F82E2BD052
:107F50003CD0F601EF2C8F010F5F1F4F84911BD097
:107F6000EA94F801C1F70894C11CD11CFA94CF0C13
:107F7000D11C0EC0853739F428D08EE10CD085E9AC
:107F80000AD08FE07ACF813511F488E018D01DD067
:107F900080E101D065CF982F8091C00085FFFCCF94
:107FA0009093C60008958091C00087FFFCCF809118
:107FB000C00084FD01C0A8958091C6000895E0E648
:107FC000F0E098E1908380830895EDDF803219F02E
:107FD00088E0F5DFFFCF84E1DECF1F93182FE3DFCA
:107FE0001150E9F7F2DF1F91089580E0E8DFEE27F6
:047FF000FF270994CA
:027FFE00040479
:0400000300007E007B
:00000001FF
